:100B5600D6C7C4DCBCD2BED300CEC2B6C8A3BA00C8
:100B6600CAAAB6C8A3BA00A1E6002500D6C7C4DC47
:0E0B7600C4A3CABD00C6D5CDA8C4A3CABD0085
:100C8400010B00011000010A000109000108000223
:030C94000C00321F
:100BDB00D294AF0DAE0C120BF1C294C374D0950D21
:060BEB00FF7407950CFEEB
:0B0BF100EF1FAC0670011E4C70F622D6
:1009DC00120C98120C527BFF7A0B79567D027F0118
:1009EC00120AB67BFF7A0B795FE4FD7F02120AB61E
:1009FC007BFF7A0B7966E4FD7F03120AB6120A5468
:100A0C00AB1A7D037F02120B11AB197D037F03120E
:100A1C000B117BFF7A0B796D7D047F02120AB67B7A
:100A2C00FF7A0B79707D047F03120AB61208B52089
:100A3C00B5097FE87E03120BF1050BE50BB402033D
:080A4C00E4F50B12080080B56F
:03002300020C3795
:100C3700C0D075D000C00730980CAF997511008FE0
:0B0C470012750A01C298D007D0D0320D
:1008B500E50A6401600302094FF50AE51264014582
:1008C500117021F50C750D32F50EF50F120BDB05C8
:1008D5000FE50F7002050EC39406E50E6480948043
:1008E50040EA8027E51264094511701FF50C750D66
:1008F500FAF50EF50F120BDB050FE50F7002050E6D
:10090500C39406E50E6480948040EAE512451170B3
:1009150003D29122E512640245117003C29122E5CA
:1009250012640445117003D29222E5126405451143
:100935007003C29222E512640645117003D2932218
:0B094500E512640845117002C2932205
:10080000E50B640160030208897BFF7A0B79727D36
:10081000027F04120AB6E51AB41A23750C00750D8E
:10082000FAE4F50EF50F120BDB050FE50F7002056C
:100830000EC39406E50E6480948040EA8026E51A93
:10084000B41821750C00750D32E4F50EF50F120B7E
:10085000DB050FE50F7002050EC39406E50E6480FC
:10086000948040EA309004D2918002C29120B30C6F
:100870007F647E00120BF1751A18800D20B20A7F7A
:10088000647E00120BF1751A1AE50B70277BFF7A54
:100890000B797B7D027F04120AB620B404B29180EA
:1008A0000C20B304B292800520B209B2937F647E1B
:0508B00000120BC22242
:03000000020950A2
:0C095000787FE4F6D8FD75811A02099743
:100BB100C2868FA07F017E00120BC2D2857F057E87
:010BC1000033
:100BC200D3EF9400EE9400400F7DC77C01DCFEDD84
:080BD200FAEF1F70EB1E80E832
:010BDA0022F8
:0A0CAC00C285C287120BB1C2852277
:0A0CB600C285D287120BB1C285225D
:0A0AB6008F138D148B158A16891713
:100AC000E513B40108E5142480FF120CACE513B45F
:100AD0000208E5142490FF120CACE513B40308E5FA
:100AE000142488FF120CACE513B40408E514249810
:100AF000FF120CACE4F518AB15AA16A917851882DD
:100B0000758300120B84FF6007120CB6051880E78E
:010B100022C2
:100C98007F34120CAC7F30120CAC7F0C120CAC7F82
:040CA80001020CAC8D
:040B1100AA05A90781
:100B1500B90107EA2480FF120CACB90207EA249058
:100B2500FF120CACB90307EA2488FF120CACB90418
:100B350007EA2498FF120CACEB75F00A84AAF0EBD7
:100B450075F00A842430FF120CB6EA2430FF020C3B
:010B5500B6E9
:030CC000DFFE2232
:100BFC00D3EF9400EE940040147D6E7C00ED1D70DC
:0D0C0C00011CED4C70F7EF1F70E61E80E339
:010C190022B8
:100C6D00D2807F02120CC0C2807F1E7E00120BFC50
:070C7D00D2807F1E020CC0B3
:100C1A00E4FEFD3080FD7F08120CC0EE25E0FE30B8
:0C0C2A0080010E2080FD0DBD08E9AF0622
:010C3600229B
:100A5400120C6D20805B3080FD7F28120CC0120CBC
:100A64001A8F13120C1AA907120C1AAC07120C1ABB
:100A7400AB07120C1A8F187F19120CC0E9FFE5138B
:100A84002FFFE433FEEC7583002FFFE5833EFEEB7E
:100A94002FFFE5833EFEE518B5070EE583B506098D
:100AA40085131489158C168B17851419E51614F5FE
:010AB4001A27
:010AB500221E
:100C520043878075985053890F438920758BFA75A5
:0B0C62008DFAC2ABD28ED2AFD2AC2212
:10095C000209DCE493A3F8E493A34003F68001F2CC
:10096C0008DFF48029E493A3F85407240CC8C3339C
:10097C00C4540F4420C8834004F456800146F6DF6B
:10098C00E4800B0102040810204080900C84E47E6B
:10099C00019360BCA3FF543F30E509541FFEE49360
:1009AC00A360010ECF54C025E060A840B8E493A327
:1009BC00FAE493A3F8E493A3C8C582C8CAC583CA52
:1009CC00F0A3C8C582C8CAC583CADFE9DEE780BE0A
:010C9700005C
:100B8400BB010CE58229F582E5833AF583E0225026
:100B940006E92582F8E622BBFE06E92582F8E22270
:0D0BA400E58229F582E5833AF583E493228A
:00000001FF
